:03000000020DB23C
:0C0DB200787FE4F6D8FD75815F020AEE40
:100AEE00120D622090442090097F647E00120CE764
:100AFE0080F4053EE53E7002053D640A453D700BEF
:100B0E000541E54170020540E48014E54164094564
:100B1E00407010E53E6409453D7008F540F541F51D
:100B2E003DF53E7F327E00120D0D20B1B630B1FD87
:0B0B3E00E4F540F541F53DF53E80A8D0
:03000B00020A8363
:100A8300C0E0C0F0C083C082C0D075D000C000C039
:0D0A930001C002C003C004C005C006C007BA
:100AA000758A18758CFC0535E53570020534C394DC
:100AB00005E5349400401CAD41AC407F017E00123E
:100AC0000B49AD3EAC3D7F027E00120B49753400F0
:030AD00075350079
:100AD300D007D006D005D004D003D002D001D00077
:0B0AE300D0D0D082D083D0F0D0E03221
:100C7600003F0006005B004F0066006D007D000728
:100C8600007F006F00770000001C001800140010A1
:080C9600000C0008000400003E
:040D09007F147E00D5
:100D0D00EF1FAC0670011E4C600B007D027CC7DC32
:090D1D00FEDDFC80EB7E007F018D
:010D260022AA
:080B49008E088F098C0A8D0B48
:100B5100780C7C007D007BFF7A0C79767E007F1615
:100B61001208D078227C007D007BFF7A0C798C7E84
:100B7100007F121208D0E50925E02422F808E6F5E5
:100B8100A0E50B25E0240CF808E6F5807F017E0046
:060B9100120D0DE4F580D9
:010B9700223B
:10098A00E4FB7590FFC29320970E7F14FE120D0DA3
:10099A003097FD120D097B0120960B120D09309636
:1009AA00FD120D097B0520950B120D093095FD12DC
:1009BA000D097B0920940B120D093094FD120D09C3
:1009CA007B0DC29220970B120D093097FD120D096B
:1009DA007B0220960B120D093096FD120D097B063B
:1009EA0020950B120D093095FD120D097B0A2094F2
:1009FA000B120D093094FD120D097B0E7590FFC282
:100A0A009120970B120D093097FD120D097B0320D7
:100A1A00960B120D093096FD120D097B0720950BD6
:100A2A00120D093095FD120D097B0B20940B120D46
:100A3A00093094FD120D097B0F7590FFC290209723
:100A4A000B120D093097FD120D097B0420960B122B
:100A5A000D093096FD120D097B0820950B120D0920
:100A6A003095FD120D097B0C20940B120D09309460
:080A7A00FD120D097B10AF0312
:010A82002251
:050DD200007F64DFFE5C
:010DD70022F9
:040CE700AD07AC06A3
:100CEB00E4FBFAED25E0FFEC33FEC3EB9FEA9E50ED
:0D0CFB000CB2A5120DD20BBB00010A80E661
:010D080022C8
:040C9E00AD07AC06EC
:100CA200E4FBFAED25E0FFEC33FEC3EB9FEA9E5036
:030CB20010B2A5D8
:070CB50000755FA6D55FFD8D
:070CBC000BBB00010A80E2FE
:010CC300220E
:060DA300C2A58F80D2A75B
:080DA9007F027EEFDEFEDFFC9D
:010DB100221F
:0A0DBE00C2A6120DA3C2A7020DA9E0
:100D2700CFCDCFCECCCE1209357C007D0A12093546
:040D3700ED2430FF78
:0A0D3B00D2A6120DA3C2A7020DA953
:100D7900AE07BE0104ED148006BE0209ED243F440E
:060D890080FF120DBE22E6
:100D8F007F38120DBE7F0C120DBE7F06120DBE7F77
:040D9F0001020DBE82
:0A0DC800AC03120D79AF04020D3BDD
:060CC4008B5C8A5D895E75
:100CCA00120D79E4FDAB5CAA5DA95E8D8275830085
:0C0CDA001208F6FF6006120D3B0D80E9C9
:010CE60022EB
:0C0C43007F0AEA24FFFDE434FFFC7E0081
:080C4F008E588F598C5A8D5B01
:100C57007F017E00E4FBEBC3955BE55A6480F87483
:0E0C67008098500AAC58AD591209230B80E852
:010C7500225C
:040D45008A4B8B4CFE
:100D4900120D79AA4DEAD39400400D120C43AC4B15
:080D5900AD4C120D271A80EDCC
:010D6100226F
:100B9800120D79C3EA64809480400B7F2B120D3BC1
:100BA8008A478B48800E7F2D120D3BC3E49BF54886
:100BB800E49AF547AA46EAD39400400D120C43ACD8
:090BC80047AD48120D271A80ED1B
:010BD1002201
:040BD2008A508B5169
:100BD600120D79AA52EAD3940040297F10120C45CF
:100BE600AC50AD51CFCDCFCECCCE120935EF540F90
:100BF600FEC3940AEE5004243080022437FF120DFF
:040C06003B1A80D144
:010C0A0022C7
:040C0B008A558B5625
:100C0F00120D79AA57EAD394004028EA24FFFDE495
:100C1F0034FFFC7F027E00120C4FAC55AD56CFCD8A
:100C2F00CFCECCCE120935EF54012430FF120D3B3D
:030C3F001A80D246
:010C4200228F
:100D62005389F0438901758A18758CFCC28DD28C27
:070D7200D2A9D2AFC2B922E1
:10080000E709F608DFFA8046E709F208DFFA803EDA
:1008100088828C83E709F0A3DFFA8032E309F608C7
:10082000DFFA8078E309F208DFFA807088828C832F
:10083000E309F0A3DFFA806489828A83E0A3F608E3
:10084000DFFA805889828A83E0A3F208DFFA804CBD
:1008500080D280FA80C680D4806980F28033801094
:1008600080A680EA809A80A880DA80E280CA8033FD
:1008700089828A83ECFAE493A3C8C582C8CCC58375
:10088000CCF0A3C8C582C8CCC583CCDFE9DEE78045
:100890000D89828A83E493A3F608DFF9ECFAA9F0C4
:1008A000EDFB2289828A83ECFAE0A3C8C582C8CC1A
:1008B000C583CCF0A3C8C582C8CCC583CCDFEADE33
:1008C000E880DB89828A83E493A3F208DFF980CC95
:1008D00088F0EF60010E4E60C388F0ED2402B4048E
:1008E0000050B9F582EB2402B4040050AF23234535
:0608F00082239008507302
:1008F600BB010CE58229F582E5833AF583E02250B7
:1009060006E92582F8E622BBFE06E92582F8E22200
:0D091600E58229F582E5833AF583E493221A
:10092300EF8DF0A4A8F0CF8CF0A428CE8DF0A42EE8
:02093300FE22A2
:10093500BC000BBE0029EF8DF084FFADF022E4CCA6
:10094500F875F008EF2FFFEE33FEEC33FCEE9DEC6F
:10095500984005FCEE9DFE0FD5F0E9E4CEFD22EDB5
:10096500F8F5F0EE8420D21CFEADF075F008EF2FFF
:10097500FFED33FD4007985006D5F0F222C398FDF0
:050985000FD5F0EA228D
:00000001FF
